:020000040800F2
:1000000000000C206D060008C9040008D104000897
:10001000D9040008E1040008E9040008BD0600084E
:10002000000000000000000000000000F1040008D3
:10003000FF040008000000000D0500081B05000873
:10004000BD060008BD060008BD060008BD06000884
:10005000BD060008BD060008BD060008BD06000874
:10006000BD060008BD060008BD060008BD06000864
:10007000BD060008BD060008BD060008BD06000854
:10008000BD060008BD060008BD060008BD06000844
:10009000BD060008BD060008BD060008BD06000834
:1000A000BD060008BD060008BD060008BD06000824
:1000B00000000000BD060008BD060008BD060008DF
:1000C000BD060008BD060008BD060008BD06000804
:1000D000BD060008BD060008BD060008BD060008F4
:1000E000BD060008BD060008BD060008BD060008E4
:1000F000BD060008BD060008BD060008BD060008D4
:10010000BD06000829050008BD060008BD06000858
:10011000BD060008BD060008BD060008BD060008B3
:10012000BD060008BD060008BD060008BD060008A3
:10013000BD060008BD060008BD060008BD06000893
:10014000BD060008BD060008BD060008BD06000883
:10015000BD060008BD060008BD060008BD06000873
:10016000BD060008BD060008BD060008BD06000863
:10017000BD060008BD060008BD060008BD06000853
:10018000BD060008BD060008BD060008BD06000843
:10019000BD060008BD060008BD060008BD06000833
:1001A000BD060008BD060008BD060008BD06000823
:1001B000BD06000800000000BD060008BD060008DE
:1001C000BD06000800000000BD060008BD060008CE
:1001D000BD060008BD060008BD060008BD060008F3
:1001E000BD060008BD060008BD060008BD060008E3
:1001F0000000000000000000BD060008BD06000869
:10020000BD060008BD060008BD060008BD060008C2
:10021000BD060008BD060008BD060008BD060008B2
:10022000BD060008BD060008BD060008BD060008A2
:08023000BD060008BD06000830
:1002380010B5054C237833B9044B13B10448AFF318
:1002480000800123237010BD0C0000200000000076
:10025800042F000808B5034B1BB103490348AFF34B
:10026800008008BD0000000010000020042F0008D6
:1002780080B58AB000AF07F1140300221A605A60F3
:100288009A60DA601A61384BD3F88C30364A43F0FA
:100298000103C2F88C30344BD3F88C3003F00103DF
:1002A8003B613B69304BD3F88C302F4A43F0020353
:1002B800C2F88C302C4BD3F88C3003F00203FB606F
:1002C800FB68294BD3F88C30274A43F00403C2F863
:1002D8008C30254BD3F88C3003F00403BB60BB682B
:1002E800214BD3F88C30204A43F00803C2F88C30F5
:1002F8001D4BD3F88C3003F008037B607B681A4BE6
:10030800D3F88C30184A43F08003C2F88C30164B6F
:10031800D3F88C3003F080033B603B680022012156
:10032800124800F013FE01237B610123BB61002307
:10033800FB6100233B6207F1140319460B4800F0E8
:1003480015FC08237B610023BB610023FB610023AC
:100358003B6207F114031946054800F007FC00BF8B
:100368002837BD4680BD00BF000C0246001C024273
:100378000000024280B500AF00F09EF900F020F8BE
:10038800FFF776FF00F00EF90A4802F065F901223E
:100398000121094800F0DAFD0821084800F0BEFDF7
:1003A8000346012BF8D100220121034800F0CEFDBD
:1003B800F2E700BF28000020001C024200000242B1
:1003C80080B59EB000AF07F11803602200211846DF
:1003D80002F068FD3B4600221A605A609A60DA60B3
:1003E8001A615A61002000F0E3FD0346002B01D09A
:1003F80000F046F80223BB614FF480737B62102340
:10040800BB6200233B6507F11803184600F05CFE49
:100418000346002B01D000F033F81F233B60012373
:100428007B600023BB600023FB6000233B6100234B
:100438007B613B460121184601F022FD0346002B53
:1004480001D000F01DF800BF7837BD4680BD000020
:1004580080B582B000AF78600821074800F05EFDE3
:100468000346002B03D10121044800F087FD00BF9B
:100478000837BD4680BD00BF00000242001C024292
:1004880080B400AF72B600BF00BFFDE780B483B090
:1004980000AF0A4BD3F89430084A43F00403C2F87B
:1004A8009430064BD3F8943003F004037B607B68E8
:1004B80000BF0C37BD465DF8047B7047000C024650
:1004C80080B400AF00BFFDE780B400AF00BFFDE718
:1004D80080B400AF00BFFDE780B400AF00BFFDE708
:1004E80080B400AF00BFFDE780B400AF00BFBD46D9
:1004F8005DF8047B704780B400AF00BFBD465DF86F
:10050800047B704780B400AF00BFBD465DF8047B34
:10051800704780B500AF00F075F900BF80BD0000DE
:1005280080B500AF024802F037F900BF80BD00BFB8
:100538002800002080B400AF184BD3F88830174A41
:1005480043F47003C2F88830154B01221A60144B2B
:100558000022DA61124B00221A62114B00225A6201
:100568000F4B1B680E4A23F0A85323F41023136083
:100578000B4B00229A620A4B1B68094A23F480231A
:100588001360074B00221A65044B4FF000629A6013
:1005980000BFBD465DF8047B704700BF00ED00E07A
:1005A800000C024680B584B000AF3B1D00221A60E3
:1005B8005A609A60154B164A1A60144B43F67F62CC
:1005C8005A60124B00229A60104B40F2E732DA6010
:1005D8000E4B00229A610D4801F0E6FF0346002BFE
:1005E80001D0FFF74DFF00237B600023FB603B1D1C
:1005F8001946064802F04EFB0346002B01D0FFF7D0
:100608003FFF00BF1037BD4680BD00BF2800002057
:100618000010004080B584B000AF78607B681B682C
:100628000E4A934216D10E4BD3F89C300C4A43F035
:100638001003C2F89C300A4BD3F89C3003F0100327
:10064800FB60FB6800220021312000F0B3F9312063
:1006580000F0CAF900BF1037BD4680BD0010004049
:10066800000C0246DFF834D0FFF764FF002103E0F6
:100678000B4B5B58435004310A480B4B42189A42C3
:10068800F6D30A4A02E0002342F8043B084B9A4298
:10069800F9D302F00FFCFFF76DFEFEE700000C2017
:1006A800F42F000800000020090000200C000020A2
:1006B80078000020FEE7000080B500AF124B1B68F1
:1006C800114A43F480731360032000F068F901F0C5
:1006D800C9FD02460D4B1B6A03F00F030C49CB5CA6
:1006E80022FA03F30B4A1360042000F0ADF90F203F
:1006F80000F012F80346002B01D0012302E0FFF7B7
:10070800C5FE0023184680BD00200240000C0246AA
:100718001C2F00080000002080B584B000AF78606E
:100728000023FB60334B1B78002B01D101235CE0D5
:10073800314B1B6803F00403042B0CD12F4B1A68B0
:100748002C4B1B7819464FF47A73B3FBF1F3B2FBC9
:10075800F3F3FB6037E000F0CFF9B860BB68022B19
:1007680023D0BB68022B2DD8BB68002B03D0BB68F5
:10077800012B0DD026E0214B1A681E4B1B78194619
:100788004FF4FA53B3FBF1F3B2FBF3F3FB601AE057
:10079800184B1B781A464FF47A73B3FBF2F34FF4F5
:1007A800FA42B2FBF3F3FB600DE0124B1B781A46DA
:1007B8004FF47A73B3FBF2F34FF40042B2FBF3F356
:1007C800FB6000E000BFF86800F01CF90346002B4E
:1007D80001D0012309E0002279684FF0FF3000F0D2
:1007E800E9F8074A7B681360002318461037BD46AE
:1007F80080BD00BF0800002010E000E000000020DD
:100808000400002080B400AF064B1B781A46064B44
:100818001B681344044A136000BFBD465DF8047B9F
:10082800704700BF080000207400002080B400AFAB
:10083800034B1B681846BD465DF8047B704700BF34
:100848007400002080B485B000AF78607B6803F046
:100858000703FB600C4BDB68BB60BA684FF6FF030D
:100868001340BB60FB681A02BB68134343F0BF63C5
:1008780043F40033BB60044ABB68D36000BF14373D
:10088800BD465DF8047B704700ED00E080B400AF22
:10089800044BDB681B0A03F007031846BD465DF8E6
:1008A800047B704700ED00E080B483B000AF0346DE
:1008B800FB7197F90730002B0BDBFB7903F01F0264
:1008C800074997F907305B09012000FA02F241F85D
:1008D800232000BF0C37BD465DF8047B704700BF7E
:1008E80000E100E080B483B000AF03463960FB71DB
:1008F80097F90730002B0ADB3B68DAB20C4997F905
:1009080007301201D2B20B4483F800230AE03B6897
:10091800DAB20849FB7903F00F03043B1201D2B2A3
:100928000B441A7600BF0C37BD465DF8047B704750
:1009380000E100E000ED00E080B489B000AFF860AD
:10094800B9607A60FB6803F00703FB61FB69C3F1D8
:100958000703042B28BF0423BB61FB690433062B60
:1009680002D9FB69033B00E000237B614FF0FF32B3
:10097800BB6902FA03F3DA43BB681A407B699A4001
:100988004FF0FF317B6901FA03F3D9437B680B40D1
:10099800134318462437BD465DF8047B704780B57D
:1009A80082B000AF78607868FFF74CFF00BF083767
:1009B800BD4680BD80B586B000AF0346B9607A6099
:1009C800FB73FFF763FF78617A68B9687869FFF7A6
:1009D800B3FF024697F90F3011461846FFF782FF1A
:1009E80000BF1837BD4680BD80B582B000AF034652
:1009F800FB7197F907301846FFF756FF00BF083715
:100A0800BD4680BD80B483B000AF78607B68013B91
:100A1800B3F1807F01D301230DE00A4A7B68013BD3
:100A28005360084B00229A60064B1B68054A43F046
:100A380003031360002318460C37BD465DF8047B9A
:100A4800704700BF10E000E080B483B000AF78606A
:100A58007B68042B44D801A252F823F0870A0008C7
:100A6800A50A0008C70A0008E90A0008790A000868
:100A78001F4B1B681E4A43F00403136031E01C4BF4
:100A88001B681B4A23F0040313601A4BD3F8E030A9
:100A9800184A23F44003C2F8E03022E0144B1B68E4
:100AA800134A23F004031360124BD3F8E03023F405
:100AB8004003104A43F48003C2F8E03011E00C4BC5
:100AC8001B680B4A23F0040313600A4BD3F8E03089
:100AD80023F44003074A43F40003C2F8E03000E07F
:100AE80000BF00BF0C37BD465DF8047B704700BFF0
:100AF80010E000E0000C024680B483B000AF194B50
:100B08001B6803F00403002B02D004237B6021E060
:100B1800154BD3F8E03003F440033B603B68B3F572
:100B2800000F11D03B68B3F5000F10D83B68002BBD
:100B380004D03B68B3F5800F03D008E000237B6046
:100B480008E001237B6005E002237B6002E00023CC
:100B58007B6000BF7B6818460C37BD465DF8047B98
:100B6800704700BF10E000E0000C024680B489B076
:100B780000AF7860396000237B617B683B61BAE134
:100B88003B681A6801217B6901FA03F31340FB6093
:100B98007B69BB61FB68002B00F0AA817B68554A22
:100BA80093425DD17B681B68FB6101227B6902FA75
:100BB80003F3DB43FA691340FB613B685B6803F0AE
:100BC80001027B6902FA03F3FA691343FB617B684C
:100BD800FA691A60484A7B6952F833303B61464AE1
:100BE8007B69DB0013445B68BB61BB69DA083B695E
:100BF800083253F82230FB61BB6903F007039B00FE
:100C08000F2202FA03F3DB43FA691340FB61BB6965
:100C180003F007039B000B2202FA03F3FA6913435C
:100C2800FB61BB69DA083B690832F96943F82210AD
:100C38003B691B68FB61BB695B00032202FA03F393
:100C4800DB43FA691340FB61BB695B00022202FACD
:100C580003F3FA691343FB613B69FA691A6067E0B9
:100C68003B685B68022B03D03B685B68122B45D15D
:100C78007B69DA087B68083253F82230FB617B69AC
:100C880003F007039B000F2202FA03F3DB43FA6920
:100C98001340FB613B681B6903F00F027B6903F09B
:100CA80007039B0002FA03F3FA691343FB617B69AC
:100CB800DA087B680832F96943F822103B691B6837
:100CC800FB61BB695B00032202FA03F3DB43FA69A9
:100CD8001340FB613B685B6803F00302BB695B0080
:100CE80002FA03F3FA691343FB613B69FA691A6074
:100CF8001EE000BF000002466C2F00083B691B681D
:100D0800FB61BB695B00032202FA03F3DB43FA6968
:100D18001340FB613B685B6803F00302BB695B003F
:100D280002FA03F3FA691343FB613B69FA691A6033
:100D38003B685B68012B0BD03B685B68022B07D0D4
:100D48003B685B68112B03D03B685B68122B30D182
:100D58003B699B68FB61BB695B00032202FA03F3F2
:100D6800DB43FA691340FB613B68DA68BB695B00E7
:100D780002FA03F3FA691343FB613B69FA699A6063
:100D88003B695B68FB610122BB6902FA03F3DB4341
:100D9800FA691340FB613B685B681B0903F00102B9
:100DA800BB6902FA03F3FA691343FB613B69FA6909
:100DB8005A603B685B68032B17D03B69DB68FB61B3
:100DC800BB695B00032202FA03F3DB43FA691340B1
:100DD800FB613B689A68BB695B0002FA03F3FA6936
:100DE8001343FB613B69FA69DA603B685B6803F0AF
:100DF8008053002B7CD0474A7B699B08183352F8F4
:100E08002330FB617B6903F00303DB000F2202FA46
:100E180003F3DB43FA691340FB617B689A0A3E4B94
:100E280013407A6902F00302D2009340FA6913432F
:100E3800FB6138497B699B081833FA6941F823201C
:100E4800344B1B68FB61FB68DB43FA691340FB61A9
:100E58003B685B6803F48013002B03D0FA69FB68D6
:100E68001343FB612B4AFB6913602A4B5B68FB61E8
:100E7800FB68DB43FA691340FB613B685B6803F47A
:100E88000013002B03D0FA69FB681343FB61214A66
:100E9800FB6953601F4BD3F88430FB61FB68DB436D
:100EA800FA691340FB613B685B6803F40033002B6D
:100EB80003D0FA69FB681343FB61164AFB69C2F861
:100EC8008430144BD3F88030FB61FB68DB43FA694C
:100ED8001340FB613B685B6803F48033002B03D04D
:100EE800FA69FB681343FB610A4AFB69C2F8803060
:100EF8007B6901337B613B681A687B6922FA03F3DB
:100F0800002B7FF43DAE00BF00BF2437BD465DF81F
:100F1800047B7047002002467F7F2F0080B485B095
:100F280000AF78600B467B807B681A697B8813402A
:100F3800002B02D00123FB7301E00023FB73FB7B32
:100F480018461437BD465DF8047B704780B483B0FB
:100F580000AF78600B467B8013467B707B78002B54
:100F680003D07A887B689A6102E07A887B689A6203
:100F780000BF0C37BD465DF8047B704780B485B070
:100F880000AF78600B467B807B685B69FB607A8882
:100F9800FB6813401A04FB68D9437B880B401A434B
:100FA8007B689A6100BF1437BD465DF8047B7047C3
:100FB80080B485B000AF7860394BDB6B03F4403305
:100FC800BB60BA687B689A420BD17B68B3F5803FF7
:100FD80005D9334BDB68324A43F48023D3600023BE
:100FE80057E07B68B3F5803F0AD92D4BDB6823F4C3
:100FF800E0227B6813432A4A43F48023D36007E046
:10100800274BDB6823F4E02225497B681343CB6038
:10101800244B1B68244AA2FB03239B09322202FBB0
:1010280003F3214AA2FB03239B090133FB6002E07F
:10103800FB68013BFB601A4BDB6803F40043002BA1
:1010480002D1FB68002BF3D1FB68002B1BD0154B9A
:101058001B68154AA2FB03239B09322202FB03F3F8
:10106800114AA2FB03239B090133FB6002E0FB68E2
:10107800013BFB600A4BDB6B03F40043002B02D1FE
:10108800FB68002BF3D1FB68002B01D1032300E0A0
:10109800002318461437BD465DF8047B704700BF2F
:1010A8000008024600000020D34D621080B400AF53
:1010B800044BDB6B03F440331846BD465DF8047BF4
:1010C800704700BF0008024680B58EB000AF786058
:1010D800002387F837307B68002B02D1012300F00A
:1010E800C8BE994BDB6903F00C033B63964B9B6AC4
:1010F80003F00303FB627B681B6803F01003002BFB
:1011080000F06C813B6B002B07D03B6B0C2B40F045
:10111800DE80FB6A012B40F0DA807B68DB69002BFC
:1011280002D1012300F0A5BE7B685A6A864B9B68F2
:1011380003F40003002B04D0834B9B6803F0704337
:1011480005E0814BD3F8F4301B0403F0704393425D
:1011580055D23B6B002B0AD17B685B6A184601F0BD
:101168009DF90346002B02D0012300F082BE764B86
:101178009B68754A43F400039360734B9B6823F0A4
:1011880070427B685B6A704913438B607B685B6A5B
:10119800B3F1404F09D36C4BDB6823F01F027B6827
:1011A8001B6A69491343CB607EE07B685B6A002B4E
:1011B8000ADA654BDB6823F478727B681B6A5B018B
:1011C80061491343CB606FE07B685B6AB3F1804F82
:1011D8000AD35D4BDB6823F4F8427B681B6A9B02E9
:1011E80059491343CB605FE0574BDB6823F47822FF
:1011F8007B681B6ADB0354491343CB6054E0524BB2
:101208009B68514A43F4000393604F4B9B6823F05B
:1012180070427B685B6A4C4913438B607B685B6AEE
:10122800B3F1404F09D3484BDB6823F01F027B68BA
:101238001B6A45491343CB6028E07B685B6A002B37
:101248000ADA414BDB6823F478727B681B6A5B011E
:101258003D491343CB6019E07B685B6AB3F1804F6B
:101268000AD3394BDB6823F4F8427B681B6A9B027C
:1012780035491343CB6009E0334BDB6823F478220C
:101288007B681B6ADB0330491343CB603B6B002B45
:101298000AD17B685B6A184601F000F90346002B07
:1012A80002D0012300F0E5BD01F0DEF8274B1B68F2
:1012B8001846FFF731FA034687F8273097F82730A2
:1012C800002B00F08A8097F8273000F0D2BD7B68A9
:1012D800DB69002B66D01C4B1B681B4A43F00103DB
:1012E8001360FFF7A3FAB86209E0FFF79FFA024616
:1012F800BB6AD31A022B02D9032300F0BABD124BE2
:101308001B6803F00403002BEFD00F4B9B680E4AB9
:1013180043F4000393600C4B9B6823F070427B6896
:101328005B6A094913438B607B685B6AB3F1404F82
:101338000ED3054BDB6823F01F027B681B6A02494A
:101348001343CB604AE000BF000C024604000020B3
:101358007B685B6A002B0ADA984BDB6823F47872A7
:101368007B681B6A5B0195491343CB6036E07B6859
:101378005B6AB3F1804F0AD3904BDB6823F4F842E1
:101388007B681B6A9B028D491343CB6026E08B4B1D
:10139800DB6823F478227B681B6ADB0387491343E5
:1013A800CB601BE0854B1B68844A23F00103136064
:1013B800FFF73CFAB86209E0FFF738FA0246BB6A61
:1013C800D31A022B02D9032300F053BD7B4B1B68B1
:1013D80003F00403002BEFD100E000BF7B681B681B
:1013E80003F00103002B00F08B803B6B082B05D02A
:1013F8003B6B0C2B09D1FB6A032B06D17B685B681E
:10140800002B7DD1012300F034BD7B685B68B3F508
:10141800803F06D1694B1B68684A43F480331360E8
:1014280041E07B685B68B3F5A02F12D1634B1B6862
:10143800624A43F480231360604B1B685F4A23F4BD
:10144800801313605D4B1B685C4A43F48033136060
:1014580029E07B685B68B3F5A81F12D1574B1B685E
:10146800564A43F480231360544B1B68534A43F491
:1014780080131360514B1B68504A43F48033136048
:1014880011E04E4B1B684D4A23F4803313604B4BDD
:101498001B684A4A23F480231360484B1B68474A59
:1014A80023F4801313607B685B68002B14D0FFF76C
:1014B800BDF9B86209E0FFF7B9F90246BB6AD31A69
:1014C800642B02D9032300F0D4BC3C4B1B6803F403
:1014D8000033002BEFD013E0FFF7A8F9B86209E05A
:1014E800FFF7A4F90246BB6AD31A642B02D9032377
:1014F80000F0BFBC314B1B6803F40033002BEFD165
:101508007B681B6803F00203002B5FD03B6B042B46
:1015180005D03B6B0C2B14D1FB6A022B11D17B68D5
:10152800DB68002B02D1012300F0A3BC234B1B690D
:1015380023F4F8127B681B691B04204913430B61D1
:1015480044E07B68DB68002B24D01C4B1B681B4ADB
:1015580043F480731360FFF769F9B86209E0FFF795
:1015680065F90246BB6AD31A022B02D9032300F09D
:1015780080BC124B1B6803F48063002BEFD00F4B29
:101588001B6923F4F8127B681B691B040B4913437E
:101598000B611BE0094B1B68084A23F48073136036
:1015A800FFF744F9B8620BE0FFF740F90246BB6A5F
:1015B800D31A022B04D9032300F05BBC000C0246AB
:1015C800AF4B1B6803F48063002BEDD17B681B686D
:1015D80003F00803002B00F0C880002387F836309A
:1015E800A74BD3F8943003F00403002B11D1A44B7C
:1015F800D3F89430A24A43F00403C2F89430A04BC5
:10160800D3F8943003F004037B617B69012387F8E6
:1016180036309C4B9B6A03F00103002B19D1994B80
:101628009B6A984A43F001039362FFF7FFF8B86298
:1016380009E0FFF7FBF80246BB6AD31A022B02D96E
:10164800032300F016BC8F4B9B6A03F00103002BA9
:10165800EFD07B685B69002B5FD0894BD3F8F03003
:101668003B627B689A693B6A03F080539A4237D0A1
:101678003B6A03F00063002B06D03B6A03F08063EB
:10168800002B01D10123F4E33B6A03F08063002BB4
:101698001BD07B4BD3F8F030794A23F0A053C2F823
:1016A800F030FFF7C3F8B86208E0FFF7BFF802466A
:1016B800BB6AD31A052B01D90323DAE3704BD3F89D
:1016C800F03003F00063002BEFD16D4BD3F8F0300E
:1016D80023F080527B689B6969491343C1F8F03055
:1016E800674BD3F8F030664A43F08063C2F8F030B5
:1016F800FFF79CF8B86208E0FFF798F80246BB6A63
:10170800D31A052B01D90323B3E35D4BD3F8F0308B
:1017180003F00063002BEFD01BE0594BD3F8F030F7
:10172800574A23F0A053C2F8F030FFF77FF8B862A9
:1017380008E0FFF77BF80246BB6AD31A052B01D9EC
:10174800032396E34E4BD3F8F03003F00063002BED
:10175800EFD197F83630012B07D1494BD3F89430A5
:10176800474A23F00403C2F894307B681B6803F0EF
:101778000403002B00F01181002387F83530404B1B
:10178800D3F8943003F00403002B11D13C4BD3F869
:1017980094303B4A43F00403C2F89430384BD3F8F2
:1017A800943003F004033B613B69012387F835302B
:1017B800344B9B6A03F00103002B18D1314B9B6A11
:1017C800304A43F001039362FFF730F8B86208E04B
:1017D800FFF72CF80246BB6AD31A022B01D9032360
:1017E80047E3284B9B6A03F00103002BF0D07B688A
:1017F8009B6803F00103002B1FD07B689B6803F0F4
:101808000403002B10D01E4BD3F8F0301C4A43F0D1
:101818000403C2F8F0301A4BD3F8F030184A43F0FA
:101828000103C2F8F03018E0154BD3F8F030144A31
:1018380043F00103C2F8F0300FE0114BD3F8F03059
:101848000F4A23F00103C2F8F0300D4BD3F8F03003
:101858000B4A23F00403C2F8F0307B689B68002B26
:1018680057D0FEF7E3FFB8620EE0FEF7DFFF02464F
:10187800BB6AD31A41F28832934205D90323F8E2AE
:10188800000C0246000802469C4BD3F8F03003F0E7
:101898000203002BE9D07B689B6803F08003002BD0
:1018A8001BD0964BD3F8F030944A43F08003C2F82B
:1018B800F0300AE0FEF7BAFF0246BB6AD31A41F2DB
:1018C8008832934201D90323D3E28C4BD3F8F0300A
:1018D80003F40063002BEDD053E0884BD3F8F030CD
:1018E800864A23F08003C2F8F0300AE0FEF79EFF34
:1018F8000246BB6AD31A41F28832934201D90323C4
:10190800B7E27E4BD3F8F03003F40063002BEDD13F
:1019180037E0FEF78BFFB8620AE0FEF787FF024662
:10192800BB6AD31A41F28832934201D90323A0E259
:10193800724BD3F8F03003F00203002BEDD16F4B5C
:10194800D3F8F03003F08003002B1AD06B4BD3F898
:10195800F0306A4A23F08003C2F8F0300AE0FEF75C
:1019680065FF0246BB6AD31A41F28832934201D915
:1019780003237EE2614BD3F8F03003F40063002BBD
:10198800EDD197F83530012B07D15C4BD3F8943063
:101998005A4A23F00403C2F894307B681B6803F0AA
:1019A8002003002B36D07B68DB6A002B19D0534B01
:1019B8001B68524A43F480531360FEF737FFB8623E
:1019C80008E0FEF733FF0246BB6AD31A022B01D99F
:1019D80003234EE2494B1B6803F40053002BF0D05D
:1019E80018E0464B1B68454A23F480531360FEF702
:1019F8001DFFB86208E0FEF719FF0246BB6AD31A5A
:101A0800022B01D9032334E23C4B1B6803F4005337
:101A1800002BF0D17B681B6803F08003002B36D0C5
:101A28007B681B6B002B19D0344B1B68334A43F47B
:101A380080431360FEF7FAFEB86208E0FEF7F6FE90
:101A48000246BB6AD31A022B01D9032311E22B4B9E
:101A58001B6803F40043002BF0D018E0274B1B68E9
:101A6800264A23F480431360FEF7E0FEB86208E0DC
:101A7800FEF7DCFE0246BB6AD31A022B01D9032308
:101A8800F7E11E4B1B6803F40043002BF0D17B6881
:101A98001B6803F04003002B7FD07B685B6B002B37
:101AA80062D0164B9B68154A43F400039360134BAE
:101AB8009B6823F070627B689B6A104913438B60B4
:101AC8007B685B6AB3F1404F09D30C4BDB6823F0AA
:101AD8001F027B681B6A09491343CB602AE07B68B5
:101AE8005B6A002B0CDA054BDB6823F478727B68A1
:101AF8001B6A5B0101491343CB601BE0000C0246E3
:101B08007B685B6AB3F1804F0AD3A14BDB6823F48F
:101B1800F8427B681B6A9B029D491343CB6009E02E
:101B28009B4BDB6823F478227B681B6ADB039849AC
:101B38001343CB60964B1B68954A43F01003136020
:101B4800FEF774FEB86208E0FEF770FE0246BB6A54
:101B5800D31A022B01D903238BE18D4B1B6803F0A9
:101B68002003002BF0D018E0894B1B68884A23F02B
:101B780010031360FEF75AFEB86208E0FEF756FE3F
:101B88000246BB6AD31A022B01D9032371E1804BA9
:101B98001B6803F02003002BF0D17B689B6B002BA4
:101BA80000F06681002387F83430794BDB6903F055
:101BB8000C030C2B00F0F2807B689B6B022B40F02F
:101BC800C580734B1B68724A23F080731360FEF75D
:101BD8002DFEB86208E0FEF729FE0246BB6AD31A5A
:101BE800022B01D9032344E1694B1B6803F00073FE
:101BF800002BF0D1664BD3F8943003F00403002B8C
:101C080011D1634BD3F89430614A43F00403C2F80E
:101C180094305F4BD3F8943003F00403FB60FB6807
:101C2800012387F834305B4BDB6803F48023B3F57A
:101C3800802F02D1012387F83730564BDB68554A8D
:101C480023F48023D360524B9B6A23F47F4323F011
:101C580003037A68D16B7A68126C013A1202114355
:101C68007A68526C0A434A4913438B62484B5A6B51
:101C7800494B13407A68926C013AC2F308017A68BA
:101C8800D26C013A520292B211437A68126D013A4B
:101C9800120402F4FE0211437A68526D013A1206E8
:101CA80002F0FE420A433A4913434B63384B9B6A9E
:101CB800374A23F0100393627B68DB6D344ADB00FC
:101CC8009363334B9B6A324A43F010039362304B61
:101CD8009B6A23F00C027B689B6D2D4913438B6232
:101CE80097F83730012B05D12A4BDB68294A43F492
:101CF8008023D36097F83430012B07D1244BD3F8D5
:101D08009430234A23F00403C2F89430204B1B6814
:101D18001F4A43F080731360FEF788FDB86208E03D
:101D2800FEF784FD0246BB6AD31A022B01D90323AE
:101D38009FE0174B1B6803F00073002BF0D0144B87
:101D48009B6A134A43F48023936291E0104B1B680B
:101D58000F4A23F080731360FEF768FDB86208E04D
:101D6800FEF764FD0246BB6AD31A022B01D903238E
:101D78007FE0074B1B6803F00073002BF0D1044B86
:101D88009B6A034A23F4E02323F0030393626FE082
:101D9800000C02460008024600008080374B9B6A10
:101DA800FB61364B5B6BBB617B689B6B012B39D04E
:101DB800FB6903F003027B68DB6B9A4232D1FB6953
:101DC8001B0A03F00F027B681B6C013B9A4229D166
:101DD800FB6903F470427B685B6C9A4222D1BB6951
:101DE800C3F308027B689B6C013B9A421AD1BB691A
:101DF8005B0A03F07F027B68DB6C013B9A4211D1DE
:101E0800BB691B0C03F07F027B681B6D013B9A4288
:101E180008D1BB691B0E03F07F027B685B6D013B39
:101E28009A4201D0012324E0144B9B6BDB08C3F3D7
:101E38000C027B68DB6D9A421AD0104B9B6A0F4AE2
:101E480023F010039362FEF7F1FCB86200BFFEF7BF
:101E5800EDFC0246BB6A9342F9D07B68DB6D074A0A
:101E6800DB009363054B9B6A044A43F010039362BB
:101E7800002318463837BD4680BD00BF000C024617
:101E880080B586B000AF786039607B68002B01D1DF
:101E98000123D9E19B4B1B6803F00F033A689A4270
:101EA80010D9984B1B6823F00F0296493B681343DF
:101EB8000B60944B1B6803F00F033A689A4201D0F9
:101EC8000123C1E17B681B6803F01003002B10D0CD
:101ED8007B685A698C4B5B6A03F070039A4208D995
:101EE800894B5B6A23F070027B685B698649134300
:101EF8004B627B681B6803F00803002B12D07B68D9
:101F08001A69814B1B6A1B0903F070039A4209D9AD
:101F18007D4B1B6A23F4E0627B681B691B017A49CD
:101F280013430B627B681B6803F00403002B10D07B
:101F38007B68DA68744B1B6A03F070039A4208D90D
:101F4800714B1B6A23F070027B68DB686E49134390
:101F58000B627B681B6803F00203002B10D07B68C0
:101F68009A68694B1B6A03F00F039A4208D9664BBB
:101F78001B6A23F00F027B689B68634913430B625B
:101F88007B681B6803F00103002B00F0D28000235C
:101F9800FB757B685B68032B43D15B4BD3F89430AC
:101FA80003F00403002B10D1574BD3F89430564A52
:101FB80043F00403C2F89430534BD3F8943003F041
:101FC8000403BB60BB680123FB75FEF72FFC386177
:101FD8004E4BDB6803F48023002B0FD008E0FEF79C
:101FE80025FC02463B69D31A022B01D903232BE1B6
:101FF800464BDB6803F48043002BF0D0FB7D012BBC
:1020080007D1414BD3F894303F4A23F00403C2F878
:1020180094303D4B1B6803F00073002B21D1012342
:1020280012E17B685B68022B07D1374B1B6803F40E
:102038000033002B15D1012306E17B685B68002B78
:1020480007D1314B1B6803F00403002B09D101238E
:10205800FAE02D4B1B6803F48063002B01D10123A8
:10206800F2E0294BDB6923F003027B685B682649B1
:102078001343CB61FEF7DAFB38617B685B68032B9F
:1020880012D10AE0FEF7D2FB02463B69D31A41F2AD
:102098008832934201D90323D6E01B4BDB6903F056
:1020A8000C030C2BEED144E07B685B68022B12D149
:1020B8000AE0FEF7BBFB02463B69D31A41F28832BD
:1020C800934201D90323BFE00F4BDB6903F00C03F4
:1020D800082BEED12DE07B685B68002B23D10AE04A
:1020E800FEF7A4FB02463B69D31A41F288329342B9
:1020F80001D90323A8E0044BDB6903F00C03002B90
:10210800EED116E000200240000C0246000802460C
:10211800FEF78CFB02463B69D31A41F288329342A0
:1021280001D9032390E04A4BDB6903F00C03042B2D
:10213800EED17B681B6803F00203002B10D07B688C
:102148009A68434B1B6A03F00F039A4208D2404B2C
:102158001B6A23F00F027B689B683D4913430B629F
:102168003C4B1B6803F00F033A689A4210D2394B74
:102178001B6823F00F0237493B6813430B60354B4C
:102188001B6803F00F033A689A4201D001235BE011
:102198007B681B6803F00403002B10D07B68DA68A7
:1021A8002B4B1B6A03F070039A4208D2284B1B6A18
:1021B80023F070027B68DB68254913430B627B6858
:1021C8001B6803F00803002B12D07B681A69204BA8
:1021D8001B6A1B0903F070039A4209D21C4B1B6A45
:1021E80023F4E0627B681B691B01194913430B62E6
:1021F8007B681B6803F01003002B10D07B685A69BA
:10220800134B5B6A03F070039A4208D2104B5B6A67
:1022180023F070027B685B690D4913434B6200F041
:1022280021F802460A4B1B6A03F00F030A49CB5CEC
:1022380022FA03F3094A1360094B1B681846FEF794
:102248006BFA0346FB73FB7B18461837BD4680BD07
:10225800000C0246002002401C2F0008000000204D
:102268000400002080B48BB000AF00237B62002301
:102278003B62784BDB6903F00C03BB61754B9B6ACF
:1022880003F003037B61BB69002B05D0BB690C2BF2
:1022980021D17B69012B1ED16E4B9B6803F400038F
:1022A800002B07D16B4BD3F8F4301B0B03F00F0353
:1022B8007B6205E0674B9B681B0F03F00F037B6293
:1022C800654A7B6A52F823307B62BB69002B10D1C8
:1022D8007B6A3B620DE05F4BDB6903F00C03042B68
:1022E80002D15E4B3B6204E0BB69082B01D15B4B1A
:1022F8003B62BB690C2B40F0A580564B9B6A03F0F0
:1023080003033B61534B9B6A1B0A03F00F03013322
:10231800FB60504B9B6A1B0903F00103BB604D4BEC
:102328009B6BDB08C3F30C03BA6802FB03F307EEED
:10233800903AF8EE677AC7ED017A3B69022B03D031
:102348003B69032B22D043E0FB6807EE903AF8EE96
:10235800677ADFED436A86EEA77A3E4B5B6BC3F381
:10236800080307EE903AF8EE676A97ED016ADFED29
:102378003D5AC6EE257A76EEA77AF7EE006A77EE32
:10238800A67A67EE277AC7ED077A46E0FB6807EE7C
:10239800903AF8EE677ADFED326A86EEA77A2D4B2F
:1023A8005B6BC3F3080307EE903AF8EE676A97EDA4
:1023B800016ADFED2C5AC6EE257A76EEA77AF7EE9B
:1023C800006A77EEA67A67EE277AC7ED077A24E0E7
:1023D8007B6A07EE903AF8EE676AFB6807EE903A78
:1023E800F8EE677A86EEA77A1A4B5B6BC3F308039D
:1023F80007EE903AF8EE676A97ED016ADFED195A31
:10240800C6EE257A76EEA77AF7EE006A77EEA67A18
:1024180067EE277AC7ED077A00BF0E4B5B6B1B0E82
:1024280003F07F0301333B603B6807EE903AB8EE58
:10243800677AD7ED076AC6EE877AFCEEE77A17EE79
:10244800903A3B623B6A18462C37BD465DF8047BE0
:10245800704700BF000C02462C2F00080024F4002F
:102468000024744B0000004680B500AFFFF7FAFE69
:102478000246074B1B6A03F00F030649CB5C22FA9E
:1024880003F3054A1360044B1B68184680BD00BF60
:10249800000C02461C2F00080000002080B586B002
:1024A80000AF78603E4BD3F8943003F00403002B60
:1024B80003D0FEF7FBFD786119E0394BD3F894306F
:1024C800374A43F00403C2F89430354BD3F89430BC
:1024D80003F00403FB60FB68FEF7E8FD7861304B0E
:1024E800D3F894302E4A23F00403C2F894307B6961
:1024F800B3F5403F03D07B69B3F5003F09D17B6852
:10250800B3F1805F02D201233B6133E000233B61DA
:1025180030E07B68B3F1805F08D27B69B3F5803F18
:1025280002D103233B6125E0012335E07B68B3F149
:10253800005F0FD97B69002B09D17B68B3F1405F3D
:1025480002D900233B6115E001233B6112E000231F
:102558003B610FE07B68B3F1805F09D17B69B3F51C
:10256800803F02D101233B6104E002233B6101E08B
:1025780001233B610B4B1B6823F00F0209493B69A0
:1025880013430B60074B1B6803F00F033A699A4229
:1025980001D0012300E0002318461837BD4680BD4E
:1025A800000C02460020024080B582B000AF78607F
:1025B8007B68002B01D1012349E07B6893F83D300B
:1025C800DBB2002B06D17B68002283F83C207868B8
:1025D800FEF720F87B68022283F83D207B681A68A2
:1025E8007B6804331946104600F04EFA7B680122D6
:1025F80083F848207B68012283F83E207B6801220B
:1026080083F83F207B68012283F840207B68012201
:1026180083F841207B68012283F842207B680122ED
:1026280083F843207B68012283F844207B680122D9
:1026380083F845207B68012283F846207B680122C5
:1026480083F847207B68012283F83D200023184641
:102658000837BD4680BD000080B485B000AF786003
:102668007B6893F83D30DBB2012B01D0012372E087
:102678007B68022283F83D207B681B68DA687B68E8
:102688001B6842F00102DA607B681B68354A934296
:1026980040D07B681B68344A93423BD07B681B68F8
:1026A800B3F1804F36D07B681B68B3F1A04F31D0AF
:1026B8007B681B682D4A93422CD07B681B682C4A88
:1026C800934227D07B681B682A4A934222D07B68B2
:1026D8001B68294A93421DD07B681B68274A93428E
:1026E80018D07B681B68264A934213D07B681B6806
:1026F800244A93420ED07B681B68234A934209D030
:102708007B681B68214A934204D07B681B68204A77
:10271800934215D17B681B689A681E4B1340FB6077
:10272800FB68062B15D0FB68B3F5803F11D07B689A
:102738001B681A687B681B6842F001021A6008E08F
:102748007B681B681A687B681B6842F001021A6084
:1027580000E000BF002318461437BD465DF8047B2F
:10276800704700BF002C0140002C015000040040BD
:10277800000400500008004000080050000C004011
:10278800000C00500034014000340150004001406A
:10279800004001500700010080B584B000AF7860A8
:1027A8007B681B68DB68FB607B681B681B69BB6018
:1027B800BB6803F00203002B20D0FB6803F0020380
:1027C800002B1BD07B681B686FF002021A617B68C4
:1027D80001221A777B681B689B6903F00303002BAF
:1027E80003D0786800F031F905E0786800F023F943
:1027F800786800F034F97B6800221A77BB6803F028
:102808000403002B20D0FB6803F00403002B1BD02B
:102818007B681B686FF004021A617B6802221A77D2
:102828007B681B689B6903F44073002B03D07868AE
:1028380000F00BF905E0786800F0FDF8786800F022
:102848000EF97B6800221A77BB6803F00803002B97
:1028580020D0FB6803F00803002B1BD07B681B68A3
:102868006FF008021A617B6804221A777B681B687C
:10287800DB6903F00303002B03D0786800F0E5F868
:1028880005E0786800F0D7F8786800F0E8F87B6829
:1028980000221A77BB6803F01003002B20D0FB68D6
:1028A80003F01003002B1BD07B681B686FF010022D
:1028B8001A617B6808221A777B681B68DB6903F456
:1028C8004073002B03D0786800F0BFF805E0786803
:1028D80000F0B1F8786800F0C2F87B6800221A7737
:1028E800BB6803F00103002B0CD0FB6803F0010365
:1028F800002B07D07B681B686FF001021A617868AB
:10290800FDF7A6FDBB6803F08003002B04D1BB686C
:1029180003F40053002B0CD0FB6803F08003002B5A
:1029280007D07B681B686FF402521A61786800F060
:102938007DFABB6803F48073002B0CD0FB6803F0AE
:102948008003002B07D07B681B686FF480721A61C4
:10295800786800F075FABB6803F04003002B0CD0D0
:10296800FB6803F04003002B07D07B681B686FF0FF
:1029780040021A61786800F07CF8BB6803F0200315
:10298800002B0CD0FB6803F02003002B07D07B68DA
:102998001B686FF020021A61786800F03DFABB6886
:1029A80003F48013002B0CD0FB6803F48013002B76
:1029B80007D07B681B686FF480121A61786800F092
:1029C80049FABB6803F40013002B0CD0FB6803F42E
:1029D8000013002B07D07B681B686FF400121A6184
:1029E800786800F041FABB6803F48003002B0CD030
:1029F800FB6803F48003002B07D07B681B686FF427
:102A080080021A61786800F039FABB6803F40003A1
:102A1800002B0CD0FB6803F40003002B07D07B6865
:102A28001B686FF400021A61786800F031FA00BF81
:102A38001037BD4680BD80B483B000AF786000BF5A
:102A48000C37BD465DF8047B704780B483B000AF97
:102A5800786000BF0C37BD465DF8047B704780B4D2
:102A680083B000AF786000BF0C37BD465DF8047BCB
:102A7800704780B483B000AF786000BF0C37BD46A4
:102A88005DF8047B7047000080B485B000AF7860C3
:102A980039607B681B68FB607B686E4A93422BD069
:102AA8007B686D4A934227D07B68B3F1804F23D06F
:102AB8007B68B3F1A04F1FD07B68684A93421BD054
:102AC8007B68674A934217D07B68664A934213D063
:102AD8007B68654A93420FD07B68644A93420BD067
:102AE8007B68634A934207D07B68624A934203D06B
:102AF8007B68614A934208D1FB6823F07003FB604E
:102B08003B685B68FA681343FB607B68514A9342F1
:102B180043D07B68504A93423FD07B68B3F1804FE3
:102B28003BD07B68B3F1A04F37D07B684B4A9342C8
:102B380033D07B684A4A93422FD07B68494A9342F4
:102B48002BD07B68484A934227D07B68474A9342F8
:102B580023D07B68464A93421FD07B68454A9342FC
:102B68001BD07B68444A934217D07B68434A934200
:102B780013D07B68424A93420FD07B68414A934204
:102B88000BD07B68404A934207D07B683F4A934208
:102B980003D07B683E4A934208D1FB6823F4407314
:102BA800FB603B68DB68FA681343FB60FB6823F053
:102BB80080023B685B691343FB607B68FA681A60B4
:102BC8003B689A687B68DA623B681A687B689A6235
:102BD8007B68204A934223D07B681F4A93421FD0C8
:102BE8007B68244A93421BD07B68234A934217D0C0
:102BF8007B68224A934213D07B68214A93420FD0C4
:102C08007B68204A93420BD07B681F4A934207D0C7
:102C18007B681E4A934203D07B681D4A934203D1C6
:102C28003B681A697B681A637B6801225A617B6872
:102C38001B6903F00103012B05D17B681B6923F095
:102C480001027B681A6100BF1437BD465DF8047B3A
:102C5800704700BF002C0140002C015000040040C8
:102C6800000400500008004000080050000C00401C
:102C7800000C005000340140003401500040014075
:102C88000040015000440140004401500048014008
:102C98000048015080B485B000AF786039607B6827
:102CA80093F83C30012B01D1022397E07B68012285
:102CB80083F83C207B68022283F83D207B681B68F0
:102CC8005B68FB607B681B689B68BB607B681B68F4
:102CD800454A93420ED07B681B68444A934209D008
:102CE8007B681B68424A934204D07B681B68414A50
:102CF800934208D1FB6823F47003FB603B685B6870
:102D0800FA681343FB60FB6823F0007323F0700339
:102D1800FB603B681B68FA681343FB607B681B68B1
:102D2800FA685A607B681B682F4A934240D07B68D8
:102D38001B682E4A93423BD07B681B68B3F1804FD7
:102D480036D07B681B68B3F1A04F31D07B681B6815
:102D5800294A93422CD07B681B68284A934227D083
:102D68007B681B68264A934222D07B681B68254AE9
:102D780093421DD07B681B68234A934218D07B6816
:102D88001B68224A934213D07B681B68184A9342F7
:102D98000ED07B681B68174A934209D07B681B6872
:102DA8001B4A934204D07B681B681A4A93420CD191
:102DB800BB6823F08003BB603B689B68BA68134319
:102DC800BB607B681B68BA689A607B68012283F8DD
:102DD8003D207B68002283F83C20002318461437E6
:102DE800BD465DF8047B7047002C0140002C015063
:102DF8000034014000340150000400400004005039
:102E08000008004000080050000C0040000C005072
:102E1800004001400040015080B483B000AF7860AA
:102E280000BF0C37BD465DF8047B704780B483B0A3
:102E380000AF786000BF0C37BD465DF8047B704773
:102E480080B483B000AF786000BF0C37BD465DF832
:102E5800047B704780B483B000AF786000BF0C3744
:102E6800BD465DF8047B704780B483B000AF7860DE
:102E780000BF0C37BD465DF8047B704780B483B053
:102E880000AF786000BF0C37BD465DF8047B704723
:102E980080B483B000AF786000BF0C37BD465DF8E2
:102EA800047B704702440346934200D1704703F8FD
:102EB800011BF9E770B50D4D00260D4C641BA410DD
:102EC800A64209D10B4D00260B4C00F017F8641BE5
:102ED800A410A64205D170BD55F8043B01369847A9
:102EE800EEE755F8043B01369847F2E7EC2F000867
:102EF800EC2F0008EC2F0008F02F0008F8B500BFF1
:102F0800F8BC08BC9E467047F8B500BFF8BC08BCC2
:042F18009E4670471A
:102F1C00000000000000000001020304060708097D
:102F2C00006CDC0200366E010024F400001BB700BC
:102F3C0000093D0080841E00504B140040420F00DD
:102F4C0000E02E000070170000A00F0000B80B006E
:102F5C00801A0600400D030088070200A0860100BD
:102F6C0000000242010000000000024203000000C9
:102F7C0000000242060000000004024201000000B2
:102F8C00000402420A000000000802420200000095
:102F9C00000C02420D000000000C02420200000076
:102FAC00000802420A000000000402420000000077
:102FBC00000802420C000000000402420300000062
:102FCC000004024204000000001002420000000055
:102FDC000010024202000000001002420300000038
:042FEC005D0200087A
:042FF000390200089A
:092FF40000093D0010000000017D
:040000050800066D7C
:00000001FF
